:100000000C94F4090C94210A0C94210A0C94210AF2
:100010000C94210A0C94210A0C94210A0C94210AB4
:100020000C94210A0C94210A0C94210A0C94210AA4
:100030000C94210A0C94210A0C94210A0C94210A94
:100040000C94210A0C9404530C94210A0C94210A58
:100050000C94210A0C94210A0C94B95B0C94ED6762
:100060000C94210A0C94AB180C94210A0C94210ACC
:100070000C94210A0C94210A0C94210A0C94210A54
:100080000C94210A0C94210A0C94210A0C94210A44
:100090000C94210A0C94210A0C94210A0C945866A1
:1000A0000C94210A0C94210A0C94210A0C94210A24
:1000B0000C94210A0C94210A0C94210A0C94210A14
:1000C0000C94210A0C94210A0C94210A0C94210A04
:1000D0000C94210A0C94210A0C94210A0C94210AF4
:1000E0000C94210A084AD73B3BCE016E84BCBFFD6D
:1000F000C12F3D6C74319ABD56833DDA3D00C77FF8
:1001000011BED9E4BB4C3E916BAAAABE0000008090
:100110003F05A84CCDB2D44EB93836A9020C50B91F
:10012000918688083CA6AAAA2ABE000000803F4803
:10013000617264636F6465642044656661756C74A4
:100140002053657474696E6773204C6F61646564D5
:100150000053746F7265642073657474696E67739D
:100160002072657472696576656400205A002059B2
:100170000020204D323036205800486F6D65206FCA
:10018000666673657420286D6D293A00204500204D
:100190005A0020580020420020540020204D3230C8
:1001A00035205300416476616E6365642076617228
:1001B0006961626C65733A20533D4D696E206665D6
:1001C00065647261746520286D6D2F73292C20542D
:1001D0003D4D696E2074726176656C20666565645C
:1001E0007261746520286D6D2F73292C20423D6D3E
:1001F000696E696D756D207365676D656E742074C9
:10020000696D6520286D73292C20583D6D617869D2
:100210006D756D205859206A65726B20286D6D2FA1
:1002200073292C20205A3D6D6178696D756D205AB7
:10023000206A65726B20286D6D2F73292C20204554
:100240003D6D6178696D756D2045206A65726B2022
:10025000286D6D2F73290020540020204D3230343A
:10026000205300416363656C65726174696F6E3A17
:1002700020533D616363656C65726174696F6E2CB8
:1002800020543D7265747261637420616363656CB0
:1002900065726174696F6E00204500205A00205914
:1002A0000020204D3230312058004D6178696D7545
:1002B0006D20416363656C65726174696F6E20289F
:1002C0006D6D2F7332293A00204500205A002059C5
:1002D0000020204D3230332058004D6178696D7513
:1002E0006D2066656564726174657320286D6D2F7D
:1002F00073293A00204500205A0020590020204D43
:1003000039322058005374657073207065722075FF
:100310006E69743A0053657474696E677320537420
:100320006F726564004572726F723A006563686F40
:100330003A005072696E7465722073746F707065E4
:10034000642064756520746F206572726F72732EFD
:100350002046697820746865206572726F7220612A
:100360006E6420757365204D39393920746F2072A1
:100370006573746172742E202854656D70657261A6
:10038000747572652069732072657365742E2053CD
:100390006574206974206166746572207265737477
:1003A000617274696E6729004D363030005472698D
:1003B00067676572696E67204D363030005072692C
:1003C0006E7465722068616C7465642E206B696C54
:1003D0006C28292063616C6C656421006F6B00528E
:1003E0006573656E643A20002200556E6B6E6F7700
:1003F0006E20636F6D6D616E643A2022005A204F4B
:100400006666736574203A20007A5F6D61783A20E1
:10041000007A5F6D696E3A20005A204F66667365F8
:1004200074005A204F6666736574206F6B00486FC6
:1004300074656E64206F6666736574733A007A5FE4
:100440006D61783A2000795F6D696E3A2000785FBF
:100450006D696E3A2000205A3A0020593A00204334
:100460006F756E7420583A200020453A00205A3AA1
:100470000020593A00583A004649524D57415245DA
:100480005F4E414D453A4D61726C696E2056312E7A
:10049000302E323B20537072696E7465722F677212
:1004A000626C206D617368757020666F722067657D
:1004B0006E36204649524D574152455F55524C3A8F
:1004C00068747470733A2F2F6769746875622E634D
:1004D0006F6D2F4D61726C696E4669726D776172D6
:1004E000652F4D61726C696E2050524F544F434FCF
:1004F0004C5F56455253494F4E3A312E30204D41B4
:100500004348494E455F545950453A4A756C6961B4
:100510002033472045585452554445525F434F5568
:100520004E543A3220555549443A3030303030300C
:1005300030302D303030302D303030302D303030C4
:10054000302D3030303030303030303030300A0004
:1005500020423A0020453A00543A0020573A002001
:10056000453A00543A0020414D425F543A00204041
:100570003A00202F003A00205400202F0020423A59
:1005800000202F006F6B20543A002569206D696EA2
:100590002C2025692073656300FFFF010000914353
:1005A0000000554300007A430000A0400000A04036
:1005B0000000A040000000000000000000007A439E
:1005C0000000000000000000000000000000914357
:1005D0000000554300007A435072696E74657220C2
:1005E00073746F707065642064756520746F206526
:1005F00072726F72732E2046697820746865206568
:1006000072726F7220616E6420757365204D393986
:100610003920746F20726573746172742E202854AF
:10062000656D70657261747572652069732072659D
:100630007365742E20536574206974206166746537
:10064000722072657374617274696E6729004E6FEF
:10065000204C696E65204E756D62657220776974F5
:100660006820636865636B73756D2C204C617374CF
:10067000204C696E653A20004E6F20436865636BBD
:1006800073756D2077697468206C696E65206E756E
:100690006D6265722C204C617374204C696E653AF2
:1006A0002000636865636B73756D206D69736D61A0
:1006B0007463682C204C617374204C696E653A2019
:1006C000004C696E65204E756D62657220697320FD
:1006D0006E6F74204C617374204C696E65204E758A
:1006E0006D6265722B312C204C617374204C696EE5
:1006F000653A20004D313130002020506C616E6E23
:10070000657242756666657242797465733A200057
:100710002046726565204D656D6F72793A20004103
:100720007072203130203230313700436F6D706984
:100730006C65643A2000467261636B74616C20578B
:100740006F726B7300207C20417574686F723A2061
:100750000041707220313020323031372031333A4D
:1007600035313A343400204C617374205570646123
:100770007465643A2000312E302E32004D61726C67
:10078000696E0020536F66747761726520526573DD
:10079000657400205761746368646F6720526573E5
:1007A0006574002042726F776E206F7574205265F9
:1007B000736574002045787465726E616C205265B3
:1007C00073657400506F7765725570007374617251
:1007D00074002200656E717565696E6720220022C3
:1007E00000656E717565696E6720220020746F6FF9
:1007F000206C6F6E6720657874727573696F6E20F8
:1008000070726576656E7465640020636F6C642039
:10081000657874727573696F6E2070726576656E37
:100820007465640045303A20005A3A2000593A2055
:1008300000583A20004D53312C4D53322050696EF0
:10084000730A0024F404D9201BC40C5C0E9804C461
:10085000095F0265077101F405F900FB04B3004864
:10086000048700C10369005803550003034500BE17
:10087000023A008402310053022A002902250004B2
:10088000022000E4011C00C8011900AF0117009804
:100890000114008401130071011000610110005166
:1008A000010E0043010D0036010B002B010B00204F
:1008B000010B00150109000C01090003010800FBF0
:1008C000000800F3000800EB000700E4000600DE6B
:1008D000000600D8000600D2000600CC000500C7C4
:1008E000000500C2000500BD000400B9000400B509
:1008F000000400B1000400AD000400A9000400A53C
:10090000000300A20003009F0004009B0003009866
:100910000003009500020093000300900003008D87
:100920000002008B000300880002008600020084A1
:10093000000300810002007F0002007D0002007BB6
:1009400000020079000200770001007600020074C6
:1009500000020072000100710002006F0002006DD1
:100960000001006C0002006A0001006900020067DB
:1009700000010066000100650001006400020062E1
:1009800000010061000100600001005F0002005DE5
:100990000001005C0001005B0001005A00010059E9
:1009A00000010058000100570001005600010055E9
:1009B00000010054000100530000005300010052E8
:1009C00000010051000100500001004F0001004EE5
:1009D0000000004E0001004D0001004C0001004BE2
:1009E0000000004B0001004A0001004900010048DE
:1009F00000000048000100470001004600000046DA
:100A000000010045000000450001004400010043D2
:100A100000000043000100420000004200010041CC
:100A200000000041000100400001003F0000003FC5
:100A30000001003E0000003E0001003D0000003DBE
:100A40000001003C0000003C0000003C0001003BB5
:100A50000000003B0001003A0000003A00010039AC
:100A600000000039000100380000003800000038A4
:100A7000000100370000003700010036000000369A
:100A80000000003600010035000000350000003590
:100A90000001003400000034000000340001003385
:100AA000000000330000003300010032000000327B
:100AB0000000003200010031000000310000003170
:100AC0000001003000000030000000300001002F65
:100AD0000000002F0000002F0000002F0001002E5A
:100AE0000000002E0000002E0001002D0000002D4F
:100AF0000000002D0000002D0001002C0000002C43
:100B00000000002C0000002C0001002B0000002B36
:100B10000000002B0000002B0001002A0000002A2A
:100B20000000002A0000002A00010029000000291E
:100B30000000002900000029000000290001002811
:100B40000000002800000028000000280000002805
:100B500000010027000000270000002700000027F8
:100B600000000027000100260000002600000026EB
:100B700000000026000000260001002500000025DE
:100B800000000025000000250000002500000025D1
:100B900000010024000000240000002400000024C4
:100BA00000000024000100230000002300000023B7
:100BB00000000023000000230000002300000023A9
:100BC000000100220000002200000022000000229C
:100BD000000000220000002200010021000000218E
:100BE0000000002100000021000000210000002181
:100BF0000000002100010020000000200000002073
:100C00000000002000000020000000200000002064
:100C1000000000200001001F0000001F0000001F56
:100C20000000001F0000001F0000001F0000001F48
:100C30000001001E0000001E0000001E0000001E3B
:100C400000000024F4D43050C38E20C2A24017828A
:100C50008B7011127A910D816CD90AA861E108C7D5
:100C6000586607615143061E4B5D05C145A7041A2E
:100C7000411104093D9803713931034036DB0265A7
:100C8000339102D4305402802E1D02632CEE017584
:100C90002AC501B028A001102781018F2564012BEE
:100CA000244B01E0223401AC211F018D200D018075
:100CB0001FFC00841EED00971DDF00B81CD200E66B
:100CC0001BC600201BBC00641AB200B219A8000A9F
:100CD00019A0006A189900D117910040178B00B530
:100CE00016840031167E00B31579003A157300C7DB
:100CF000146F0058146A00EE136600881363002511
:100D0000135E00C7125B006C12570015125400C12D
:100D100011510070114F0021114B00D61049008D68
:100D20001047004610440002104200C00F400080EF
:100D30000F3E00420F3C00060F3B00CB0E380093E5
:100D40000E37005C0E3500270E3400F30D3200C163
:100D50000D3100900D3000600D2E00320D2D00057C
:100D60000D2C00D90C2B00AE0C2900850C29005C41
:100D70000C2700350C27000E0C2600E80B2400C4BD
:100D80000B2400A00B23007D0B23005A0B210039FC
:100D90000B2100180B2000F80A1F00D90A1E00BB07
:100DA0000A1E009D0A1D00800A1D00630A1C0047E0
:100DB0000A1B002C0A1B00110A1A00F7091A00DD91
:100DC000091900C4091900AB091900920917007B21
:100DD000091800630917004C09160036091600208F
:100DE0000916000A091500F5081500E0081400CCE2
:100DF000081400B8081400A4081400900813007D1B
:100E00000812006B0813005808120046081200343C
:100E1000081100230811001208110001081100F048
:100E2000071000E0071000D0071000C0071000B046
:100E3000070F00A107100091070E0083070F007431
:100E4000070F0065070E0057070E0049070E003B0D
:100E5000070D002E070E0020070D0013070D0006DA
:100E6000070D00F9060C00ED060D00E0060C00D49D
:100E7000060C00C8060C00BC060C00B0060C00A452
:100E8000060B0099060C008D060B0082060B0077FE
:100E9000060B006C060B0061060A0057060B004C9F
:100EA000060A0042060A0038060A002E060A002436
:100EB000060A001A060A001006090007060A00FDC5
:100EC000050900F4050900EB050900E2050900D950
:100ED000050900D0050900C7050900BE050900B5D0
:100EE000050800AD050800A50509009C050800944B
:100EF0000508008C050800840508007C05080074BE
:100F00000508006C050700650508005D050700562B
:100F10000508004E05070047050700400508003892
:100F2000050700310507002A050700230507001CF7
:100F3000050600160507000F050700080506000254
:100F4000050700FB040600F5040700EE040600E8B0
:100F5000040600E2040700DB040600D5040600CF07
:100F6000040600C9040600C3040600BD040600B759
:100F7000040600B1040500AC040600A6040600A0A7
:100F80000405009B04060095040500900406008AF1
:100F900004050085040500800406007A0405007538
:100FA000040500700405006B04050066040500617B
:100FB0000405005C04050057040500520405004DBB
:100FC00004050048040500430405003E0404003AFB
:100FD00004050035040500300404002C0405002736
:100FE000040400230405001E0404001A040400166F
:100FF000040500110404000D0404000904050004A4
:1010000004040000040400FC030400F8030400F4DA
:10101000030400F0030400EC030400E8030400E40C
:10102000030400E0030400DC030400D8030400D43C
:10103000030400D0030400CC030400C8030300C56C
:10104000030300205A3A0020593A0020583A00651C
:101050006E6473746F7073206869743A200054650D
:101060006D70657261747572652068656174656420
:1010700020626564207377697463686564206F66B5
:10108000662E204D415854454D5020747269676753
:1010900065726564202121003A2045787472756478
:1010A0006572207377697463686564206F66662E65
:1010B000204D494E54454D502074726967676572E2
:1010C00065642021003A2045787472756465722049
:1010D0007377697463686564206F66662E204D417E
:1010E0005854454D50207472696767657265642075
:1010F0002100202D20496E76616C6964206578742A
:101100007275646572206E756D62657220210010C3
:1011100000C90210012C014001220170011801B028
:10112000010E01F00104015002FA00B002F000309B
:1011300003E600D003DC009004D2007005C800A0D4
:1011400006BE000008B400B009AA00D00BA00060E1
:101150000E960060118C000015820020197800C0E6
:101160001D6E00A0226400B0275A00902C50000091
:10117000314600E0343C0010383200903A280060DC
:101180003C1E00A03D1400803E0A00203F0000509D
:101190004944204175746F74756E652066696E6987
:1011A00073686564212050757420746865206C61D3
:1011B0007374204B702C204B6920616E64204B644B
:1011C00020636F6E7374616E74732066726F6D202E
:1011D00061626F766520696E746F20436F6E666919
:1011E0006775726174696F6E2E68005049442041C2
:1011F00075746F74756E65206661696C6564212015
:1012000074696D656F75740020403A006F6B2054EF
:101210003A006F6B20423A00504944204175746F88
:1012200074756E65206661696C6564212054656D16
:10123000706572617475726520746F6F206869677C
:101240006800204B643A2000204B693A2000204B74
:10125000703A200020436C617373696320504944E5
:1012600020002054753A2000204B753A2000206D54
:1012700061783A2000206D696E3A200020643A209F
:101280000020626961733A200000002100240027D9
:10129000002A002D00300033000101000004010786
:1012A000010A0100002200250028002B002E003139
:1012B00000340002010000050108010B01000020BC
:1012C000002300260029002C002F0032000001001E
:1012D00000030106010901050505050705080808C1
:1012E00008020202020A0A080804040404010101B7
:1012F00001010101010303030303030303040707BF
:10130000070C0C0C0C0C0C0C0C020202020606065C
:1013100006060606060B0B0B0B0B0B0B0B01021044
:1013200020200808102040102040800201020108FF
:1013300004020101020408102040808040201008AF
:101340000402018004020180402010080402010808
:101350000402010102040810204080010204081068
:101360002040800000090A02080B0C0D0706030448
:10137000010000000000000000000000000000006C
:10138000000000000000000000000000000000114C
:10139000100F00000000000000000000000000002E
:1013A000000000000000000000494E46494E49542C
:1013B000594E414ECDCCCC3D0AD7233C17B7D1383E
:1013C00077CC2B329595E6241FB14F0A00002041BF
:1013D0000000C84200401C4620BCBE4CCA1B0E5A2E
:1013E000AEC59D743F19C76511241FBECFEFD1E272
:1013F000DEBFCDBF00E00CBF14E0A0E0B2E0E2EB46
:10140000F0EE00E00BBF02C007900D92A436B107CA
:10141000D9F71BBE1DE0A4E6B4E001C01D92A93CB3
:10142000B107E1F713E1C8EED3E104C02297FE0152
:101430000E941170C43ED107C9F70E94F16A0C9452
:1014400057700C940000A0E0B0E0E9E2FAE00C94E0
:101450002670EC015B016115710519F0FB019183A8
:101460008083F9908F2D90E00E941570892BC9F729
:10147000FDE2FF1621F4F990EE24E39405C02BE27F
:10148000F21609F4F990EE248E0101501040C801C3
:1014900069EA73E143E050E062D2892BF9F48E01EE
:1014A0000E5F1F4FC8016CEA73E145E050E057D270
:1014B000892B19F48E01095F1F4FA114B10419F093
:1014C000F50111830083E0FC04C070E090E080E847
:1014D00013C070E090E080E86FEF07C1C80161EBD6
:1014E00073E143E050E03BD2892B69F4A114B104CD
:1014F00029F470E090E080EC6FE7F7C02296F501E8
:10150000D183C083F6CF8824992440E050E060E086
:1015100070E0EF2DE053EA30A0F5F2E0EF2A8E2DD7
:1015200090E09C0128703070E2FE06C0232B79F514
:101530000894811C911C2BC0232B19F0089481085E
:101540009108DB01CA0112E0880F991FAA1FBB1F77
:101550001A95D1F7480F591F6A1F7B1F440F551F5B
:10156000661F771F4E0F511D611D711D483929E9F6
:10157000520729E9620729E1720748F084E0E82A66
:1015800006C0EE3F31F4E3FC39C098E0E92AF99057
:10159000C0CFE53311F0E53189F529912D3219F4E9
:1015A000E0E1EE2A05C02B3219F081E090E003C0A3
:1015B000299182E090E0E22FE053EA3018F0C81B56
:1015C000D90B1CC020E030E0FCE020383F075CF481
:1015D000C901880F991F880F991F280F391F220FE3
:1015E000331F2E0F311DE991E053EA3068F3E4FE1A
:1015F00003C0309521953F4F820E931ECE2CDD24E3
:10160000E1FE07C0A114B10421F02197F501D183B7
:10161000C083CB01BA010E947A6C7B018C01F3E09C
:10162000CF22DD2423E0C216D10421F417FB10954C
:1016300017F9109557016801C801B70120E030E0A3
:1016400040E050E00E94DA6B882309F44AC097FE1C
:101650000DC028ECE22E23E1F22E909481949108A3
:101660009394C0E2D0E000E010E012C090EEE92ECA
:1016700093E1F92EF6CFF7012591359145915491DB
:10168000C601B5010E94BA6E5B016C018C1A9D0AFD
:101690008C169D0684F7D595C7950F5F1F4F0630B2
:1016A000110529F08CEF9FEFE80EF91EF1CFC5016F
:1016B000D6017C018D018C2D880F8D2D881F8F3FC9
:1016C00051F0C601B50120E030E040E050E00E945A
:1016D000DA6B882331F482E290E09093C80D809316
:1016E000C70D7E2D9F2D802F612F272F392F482F3B
:1016F000562FB901CA01CDB7DEB7ECE00C944270A9
:101700002F923F925F926F927F928F929F92AF92B1
:10171000BF92CF92DF92EF92FF920F931F93CF93DE
:10172000DF938C011B01EA016115710519F0FB01C2
:1017300091838083209749F0CE010297839728F008
:1017400020E030E040E050E0F6C0F801A1908F01C9
:101750008A2D90E00E941570892BB9F7FDE2AF1633
:1017600031F4F801A1908F015524539407C0FBE296
:10177000AF1619F4F801A1908F015524209719F0A4
:10178000C031D105C1F4F0E3AF1679F4F8018081DE
:10179000883711F0883549F4F801A1800E5F1F4F9A
:1017A000F2E05F2AC0E1D0E006C0209721F480E398
:1017B000A816E9F427C0C830D10531F1C930D105E8
:1017C00024F4C230D10531F50CC0CA30D10589F0FE
:1017D000C031D105F9F4C12CD12CE12CB8E0FB2E9D
:1017E00028C0C12CD12CE12CA0E4FA2E22C0CAE0E2
:1017F000D0E0FCECCF2EFCECDF2EFCECEF2EFCE07E
:10180000FF2E17C0C8E0D0E0C12CD12CE12CE0E1C4
:10181000FE2E0FC09E01442737FD4095542F60E0F7
:1018200070E080E090E80E94BE6FC901DA016C01AF
:101830007D0120E030E040E050E060E03E0188249F
:1018400077FC8094982C70EDB72EBA0CE9E0EB157C
:1018500070F48A2D81548A3118F499ECB92E06C09F
:101860008A2D81568A3150F589EAB82EBA0C8B2D13
:1018700090E08C179D0714F56F3FE1F0C216D30678
:10188000E406F506B0F0CA01B901A40193010E9473
:101890008C6F9B01AC012B0D311D411D511D213061
:1018A000F0E03F07F0E04F07F0E85F0710F461E079
:1018B00001C06FEFF801A1908F01C5CF2114310451
:1018C00081F0662331F001501040F1011183008353
:1018D00008C051FE1AC002501040F101118300836C
:1018E00014C067FF12C050FC05C02FEF3FEF4FEF51
:1018F0005FE704C020E030E040E050E882E290E0A2
:101900009093C80D8093C70D16C050FE08C0509527
:101910004095309521953F4F4F4F5F4F0CC057FF7B
:101920000AC082E290E09093C80D8093C70D2FEF1C
:101930003FEF4FEF5FE7B901CA01DF91CF911F91F0
:101940000F91FF90EF90DF90CF90BF90AF909F905E
:101950008F907F906F905F903F902F900895FB0144
:10196000DC014150504088F08D9181341CF08B3562
:101970000CF4805E659161341CF06B350CF4605E94
:10198000861B611171F3990B0895881BFCCFFB0135
:1019900055915523A9F0BF01DC014D914517411127
:1019A000E1F759F4CD010590002049F04D91401523
:1019B0004111C9F3FB014111EFCF81E090E00197A4
:1019C0000895FC018191861721F08823D9F7992782
:1019D00008953197CF010895FB01DC018D910190AD
:1019E00080190110D9F3990B0895FB01DC014150D6
:1019F000504030F08D910190801919F40020B9F712
:101A0000881B990B0895AEE0B0E0E9E0FDE00C948E
:101A10002E700E891F898EE08C831A8309838FEFC5
:101A20009FE79E838D839E01265E3F4FCE010196E8
:101A3000688D798DA9010AD02F813885020F131F77
:101A4000F80110822E96E4E00C944A70ABE0B0E00E
:101A5000ECE2FDE00C9420703C012B015A01FC01EA
:101A600017821682838181FD03C06FEF7FEFB9C1BA
:101A70009AE0892E1E010894211C311CF301238158
:101A8000F20123FD859123FF81912F01882309F421
:101A9000A5C1853239F423FD859123FF81912F0162
:101AA000853221F490E0B301B7D1E8CF982FFF241D
:101AB000EE249924FFE1FF15D0F09B3269F09C32AF
:101AC00028F4903259F0933291F40EC09D3249F0CF
:101AD000903369F441E024C052E0F52A84E0F82A0A
:101AE00028C098E0F92A25C0E0E1FE2A22C0F7FCD0
:101AF00029C0892F80538A3070F4F6FE05C0989C67
:101B0000902C1124980E15C0E89CE02C1124E80EAE
:101B1000F0E2FF2A0EC09E3229F4F6FC5FC140E4D9
:101B2000F42A07C09C3619F450E8F52A02C098360A
:101B300049F4F20123FD959123FF91912F019923FF
:101B400009F0B8CF892F8554833018F08052833044
:101B500038F444E050E0A40EB51E5FE359830FC093
:101B6000933631F0933779F0933509F052C01FC0A6
:101B7000F5018081898342E050E0A40EB51E610129
:101B800001E010E011C0F501C080D180F6FC03C077
:101B90006FEF7FEF02C0692D70E042E050E0A40ECD
:101BA000B51EC6012ED18C015FE7F52213C0F501E9
:101BB000C080D180F6FC03C06FEF7FEF02C0692DBB
:101BC00070E042E050E0A40EB51EC6010FD18C01BA
:101BD00050E8F52AF3FE06C018C080E290E0B30199
:101BE0001BD1EA948E2D90E008171907B0F30DC0B1
:101BF000F601F7FC8591F7FE81916F0190E0B3014A
:101C00000BD1E110EA94015010400115110581F744
:101C1000E2C0943611F0993661F5F7FE08C0F5017F
:101C2000208131814281538184E090E00AC0F50136
:101C3000808191819C01442737FD4095542F82E09B
:101C400090E0A80EB91E9FE6F92257FF09C05095F3
:101C50004095309521953F4F4F4F5F4FE0E8FE2A6A
:101C6000CA01B901A1012AE030E002D1D82ED21870
:101C70003FC0953729F41F2D1F7E2AE030E01DC09C
:101C80001F2D197F9F3661F0903720F4983509F0A9
:101C9000A5C00FC0903739F0983709F09FC004C035
:101CA00028E030E00AC0106114FD146020E130E04B
:101CB00004C014FD166020E132E017FF08C0F501F2
:101CC000608171818281938144E050E008C0F50118
:101CD00080819181BC0180E090E042E050E0A40E60
:101CE000B51EA101C5D0D82ED2188FE7F82EF1224B
:101CF000F6FE0BC05EEFF522D91438F4F4FE07C0EF
:101D0000F2FC05C08FEEF82202C01D2D01C0192D76
:101D1000F4FE0DC0FE01ED0DF11D8081803319F43C
:101D200099EEF92208C01F5FF2FE05C003C08F2D97
:101D3000867809F01F5F0F2DF3FC13C0F0FE0EC074
:101D40001E1510F09D2C0AC09D2C9E0C911A1E2D64
:101D500005C080E290E0B3015FD01F5F1E15C8F39D
:101D600004C01E1510F4E11A01C0EE2404FF0EC0D9
:101D700080E390E0B30150D002FF1BC001FD03C01F
:101D800088E790E00EC088E590E00BC0802F867851
:101D900081F001FF02C08BE201C080E2F7FC8DE21E
:101DA00090E0B30139D005C080E390E0B30134D0B6
:101DB0009A94D914C8F3DA94F101ED0DF11D8081E4
:101DC00090E0B30129D0DD20B1F705C080E290E0BA
:101DD000B30122D0EA94EE20C9F750CEF301668118
:101DE0007781CB012B96E2E10C943C70FC010590CD
:101DF000615070400110D8F7809590958E0F9F1F0D
:101E00000895FC016150704001900110D8F7809551
:101E100090958E0F9F1F08950F931F93CF93DF937D
:101E20008C01EB018B8181FF1BC082FF0DC02E81D5
:101E30003F818C819D812817390764F4E881F981FD
:101E40000193F983E88306C0E885F985802F199509
:101E5000892B31F48E819F8101969F838E8302C0EE
:101E60000FEF1FEFC801DF91CF911F910F910895E0
:101E7000FA01AA27283051F1203181F1E8946F93BB
:101E80006E7F6E5F7F4F8F4F9F4FAF4FB1E03ED061
:101E9000B4E03CD0670F781F891F9A1FA11D680FFF
:101EA000791F8A1F911DA11D6A0F711D811D911D32
:101EB000A11D20D009F468943F912AE0269F1124A7
:101EC0003019305D3193DEF6CF010895462F47700B
:101ED000405D4193B3E00FD0C9F7F6CF462F4F7066
:101EE000405D4A3318F0495D31FD4052419302D0C4
:101EF000A9F7EACFB4E0A69597958795779567956A
:101F0000BA95C9F700976105710508959B01AC0169
:101F10000A2E06945795479537952795BA95C9F790
:101F2000620F731F841F951FA01D0895DF93CF9329
:101F3000CDB7DEB76C970FB6F894DEBF0FBECDBF3E
:101F40008091000290910102A0910202B0910302DF
:101F5000898B9A8BAB8BBC8BFE01719624E630E0AB
:101F60008081F999FECF1FBA32BD21BD80BD0FB669
:101F7000F894FA9AF99A0FBE2F5F3F4F2836310531
:101F800011F03196EDCFE1E2F7E08081F999FECFD3
:101F90001FBA32BD21BD80BD0FB6F894FA9AF99AE6
:101FA0000FBE2F5F3F4F2837310511F03196EDCF2F
:101FB000E1E1F7E08081F999FECF1FBA32BD21BD82
:101FC00080BD0FB6F894FA9AF99A0FBE2F5F3F4F73
:101FD0002838310511F03196EDCFE1E3F7E080814B
:101FE000F999FECF1FBA32BD21BD80BD0FB6F8945E
:101FF000FA9AF99A0FBE2F5F3F4F2839310511F039
:102000003196EDCFE5E4F7E08081F999FECF1FBA74
:1020100032BD21BD80BD0FB6F894FA9AF99A0FBE71
:102020002F5F3F4F2C39310511F03196EDCFE9E4A8
:10203000F7E08081F999FECF1FBA32BD21BD80BD86
:102040000FB6F894FA9AF99A0FBE2F5F3F4F203AD5
:10205000310511F03196EDCFE1E4F7E08081F99997
:10206000FECF1FBA32BD21BD80BD0FB6F894FA9ADB
:10207000F99A0FBE2F5F3F4F243A310511F0319688
:10208000EDCFE9E5F7E08081F999FECF1FBA32BDC7
:1020900021BD80BD0FB6F894FA9AF99A0FBE2F5F52
:1020A0003F4F283A310511F03196EDCFEDE0F7E0E2
:1020B0008081F999FECF1FBA32BD21BD80BD0FB618
:1020C000F894FA9AF99A0FBE2F5F3F4F2C3A3105D8
:1020D00011F03196EDCFEDE4F7E08081F999FECF74
:1020E0001FBA32BD21BD80BD0FB6F894FA9AF99A95
:1020F0000FBE2F5F3F4F203B310511F03196EDCFE2
:10210000E1E5F7E08081F999FECF1FBA32BD21BD2C
:1021100080BD0FB6F894FA9AF99A0FBE2F5F3F4F21
:10212000243B310511F03196EDCFE5E5F7E08081F4
:10213000F999FECF1FBA32BD21BD80BD0FB6F8940C
:10214000FA9AF99A0FBE2F5F3F4F283B310511F0E5
:102150003196EDCFE6E0F5E08081F999FECF1FBA28
:1021600032BD21BD80BD0FB6F894FA9AF99A0FBE20
:102170002F5F3F4F243C310511F03196EDCF80EFBA
:1021800090E09A83898382ED90E09C838B831E820A
:102190001D8218861F828BEE90E09A8789871C86A5
:1021A0001B861E861D86FE0131968081F999FECF21
:1021B0001FBA32BD21BD80BD0FB6F894FA9AF99AC4
:1021C0000FBE2F5F3F4F263C310571F7FE0133965E
:1021D0008081F999FECF1FBA32BD21BD80BD0FB6F7
:1021E000F894FA9AF99A0FBE2F5F3F4F283C3105B9
:1021F00011F03196EDCFFE0135968081F999FECF31
:102200001FBA32BD21BD80BD0FB6F894FA9AF99A73
:102210000FBE2F5F3F4F2A3C310511F03196EDCFB5
:10222000FE0137968081F999FECF1FBA32BD21BDDC
:1022300080BD0FB6F894FA9AF99A0FBE2F5F3F4F00
:102240002C3C310511F03196EDCFFE01399680819D
:10225000F999FECF1FBA32BD21BD80BD0FB6F894EB
:10226000FA9AF99A0FBE2F5F3F4F2E3C310511F0BD
:102270003196EDCFFE013B968081F999FECF1FBAD2
:1022800032BD21BD80BD0FB6F894FA9AF99A0FBEFF
:102290002F5F3F4F203D310511F03196EDCFFE010C
:1022A0003D968081F999FECF1FBA32BD21BD80BD18
:1022B0000FB6F894FA9AF99A0FBE2F5F3F4F223D5E
:1022C000310511F03196EDCFE1E2F5E08081F99929
:1022D000FECF1FBA32BD21BD80BD0FB6F894FA9A69
:1022E000F99A0FBE2F5F3F4F263D310511F0319611
:1022F000EDCF80E090E8ABE3B5E48D8B9E8BAF8BA8
:10230000B88FAE014B5E5F4FFA018081F999FECF25
:102310001FBA32BD21BD80BD0FB6F894FA9AF99A62
:102320000FBE2F5F3F4F2A3D310511F03196EDCFA3
:1023300080E090E0A0E0B0E08D8B9E8BAF8BB88FFB
:10234000FA018081F999FECF1FBA32BD21BD80BD4F
:102350000FB6F894FA9AF99A0FBE2F5F3F4F2E3DB1
:10236000310511F03196EDCFFA018081F999FECF58
:102370001FBA32BD21BD80BD0FB6F894FA9AF99A02
:102380000FBE2F5F3F4F223E310519F04F5F5F4F69
:10239000EBCF80E290E0988B8F87FE013F968081A3
:1023A000F999FECF1FBA32BD21BD80BD0FB6F8949A
:1023B000FA9AF99A0FBE233E310521F0319623EEA9
:1023C00030E0EDCF2091F504F999FECF1FBA84EEED
:1023D00090E092BD81BD20BD0FB6F894FA9AF99AAB
:1023E0000FBEE8E5F3E085EE90E02081F999FECF9D
:1023F0001FBA92BD81BD20BD0FB6F894FA9AF99A22
:102400000FBE0196893E910511F03196EECFECE5B5
:10241000F3E02081F999FECF1FBA92BD81BD20BDA6
:102420000FB6F894FA9AF99A0FBE8C3E910519F0FE
:1024300001963196EECF8091040290910502A09111
:102440000602B0910702898F9A8FAB8FBC8FFE0175
:10245000799684E690E02081F999FECF1FBA92BD6B
:1024600081BD20BD0FB6F894FA9AF99A0FBE87364F
:10247000910519F001963196EECFECE2F3E09491DC
:1024800008C08091C00085FFFCCF9093C6003196B4
:1024900094919923B1F7E5E1F3E0949108C080911C
:1024A000C00085FFFCCF9093C6003196949199238C
:1024B000B1F78091C00085FFFCCF8AE08093C60011
:1024C0006C960FB6F894DEBF0FBECDBFCF91DF91F3
:1024D0000895DF93CF93CDB7DEB7E0970FB6F894AA
:1024E000DEBF0FBECDBFDE011196E9EFF3E080E164
:1024F00001900D928150E1F7DE015196E9EEF3E093
:1025000080E101900D928150E1F7DE019196E9EDB5
:10251000F3E080E101900D928150E1F789819A8189
:10252000AB81BC818093210790932207A09323075E
:10253000B093240789899A89AB89BC898093110754
:1025400090931207A0931307B093140789A19AA13F
:10255000ABA1BCA18093310790933207A0933307BE
:10256000B09334078D819E81AF81B8858093250714
:1025700090932607A0932707B09328078D899E89FB
:10258000AF89B88D8093150790931607A09317070E
:10259000B09318078DA19EA1AFA1B8A58093350770
:1025A00090933607A0933707B093380789859A85AB
:1025B000AB85BC858093290790932A07A0932B07AE
:1025C000B0932C07898D9A8DAB8DBC8D80931907A4
:1025D00090931A07A0931B07B0931C0789A59AA58F
:1025E000ABA5BCA58093390790933A07A0933B070E
:1025F000B0933C078D859E85AF85B88980932D0764
:1026000090932E07A0932F07B09330078D8D9E8D4A
:10261000AF8DB8A180931D0790931E07A0931F074D
:10262000B09320078DA59EA5AFA5B8A980933D07BF
:1026300090933E07A0933F07B09340070E948A40C3
:1026400080E090E0A8E4B4E48093450790934607C7
:10265000A0934707B09348078093490790934A0790
:10266000A0934B07B0934C0720E030E040E050E0EF
:102670002093410730934207409343075093440708
:1026800080E29EE4A0E0B0E080930D0790930E07F7
:10269000A0930F07B09310072093590730935A0760
:1026A00040935B0750935C0780E090E0A0E0B0E4CB
:1026B00080934D0790934E07A0934F07B093500718
:1026C0008DEC9CECACECBEE38093510790935207E9
:1026D000A0935307B093540780E090E0A0EAB0E4E1
:1026E0008093550790935607A0935707B0935807C8
:1026F00020930E0530930F0540931005509311055C
:1027000020930A0530930B0540930C0550930D055B
:10271000209306053093070540930805509309055B
:102720001092F50480E090E0A0E4B0E480935803B8
:1027300090935903A0935A03B0935B0380935C0377
:1027400090935D03A0935E03B0935F030E94D61B3A
:10275000ECE2F3E0949108C08091C00085FFFCCFCB
:102760009093C600319694919923B1F7EFE2F1E08E
:10277000949108C08091C00085FFFCCF9093C60063
:10278000319694919923B1F78091C00085FFFCCFD9
:102790008AE08093C600E0960FB6F894DEBF0FBEC5
:1027A000CDBFCF91DF9108950F931F93DF93CF9308
:1027B000CDB7DEB7A4970FB6F894DEBF0FBECDBF7E
:1027C0008091040290910502A0910602B091070247
:1027D0008D8B9E8BAF8BB88FFE01719604E610E057
:1027E000F999FECF12BD01BDF89A80B580830F5FC5
:1027F0001F4F0836110511F03196F2CFCE014596E4
:10280000BE016F5E7F4F43E050E0EFD8009709F0C4
:10281000D3C1E1E2F7E0F999FECF12BD01BDF89A0C
:1028200080B580830F5F1F4F0837110511F0319677
:10283000F2CFE1E1F7E0F999FECF12BD01BDF89AC0
:1028400080B580830F5F1F4F0838110511F0319656
:10285000F2CFE1E3F7E0F999FECF12BD01BDF89A9E
:1028600080B580830F5F1F4F0839110511F0319635
:10287000F2CF0E948A40E5E4F7E0F999FECF12BD5D
:1028800001BDF89A80B580830F5F1F4F0C39110589
:1028900011F03196F2CFE9E4F7E0F999FECF12BDDD
:1028A00001BDF89A80B580830F5F1F4F003A110574
:1028B00011F03196F2CFE1E4F7E0F999FECF12BDC5
:1028C00001BDF89A80B580830F5F1F4F043A110550
:1028D00011F03196F2CFE9E5F7E0F999FECF12BD9C
:1028E00001BDF89A80B580830F5F1F4F083A11052C
:1028F00011F03196F2CFEDE0F7E0F999FECF12BD7D
:1029000001BDF89A80B580830F5F1F4F0C3A110507
:1029100011F03196F2CFEDE4F7E0F999FECF12BD58
:1029200001BDF89A80B580830F5F1F4F003B1105F2
:1029300011F03196F2CFE1E5F7E0F999FECF12BD43
:1029400001BDF89A80B580830F5F1F4F043B1105CE
:1029500011F03196F2CFE5E5F7E0F999FECF12BD1F
:1029600001BDF89A80B580830F5F1F4F083B1105AA
:1029700011F03196F2CFE6E0F5E0F999FECF12BD05
:1029800001BDF89A80B580830F5F1F4F043C11058D
:1029900011F03196F2CFFE013196F999FECF12BDBA
:1029A00001BDF89A80B580830F5F1F4F063C11056B
:1029B00099F7FE013396F999FECF12BD01BDF89A41
:1029C00080B580830F5F1F4F083C110511F03196D1
:1029D000F2CFFE013596F999FECF12BD01BDF89AEE
:1029E00080B580830F5F1F4F0A3C110511F03196AF
:1029F000F2CFFE013796F999FECF12BD01BDF89ACC
:102A000080B580830F5F1F4F0C3C110511F031968C
:102A1000F2CFFE013996F999FECF12BD01BDF89AA9
:102A200080B580830F5F1F4F0E3C110511F031966A
:102A3000F2CFFE013B96F999FECF12BD01BDF89A87
:102A400080B580830F5F1F4F003D110511F0319657
:102A5000F2CFFE013D96F999FECF12BD01BDF89A65
:102A600080B580830F5F1F4F023D110511F0319635
:102A7000F2CFE1E2F5E0F999FECF12BD01BDF89A7F
:102A800080B580830F5F1F4F063D110511F0319611
:102A9000F2CFFE017996F999FECF12BD01BDF89AE9
:102AA00080B580830F5F1F4F0A3D110511F03196ED
:102AB000F2CFFE017D96F999FECF12BD01BDF89AC5
:102AC00080B580830F5F1F4F0E3D110511F03196C9
:102AD000F2CFFE01B196F999FECF12BD01BDF89A71
:102AE00080B580830F5F1F4F023E110511F03196B4
:102AF000F2CFFE013F96F999FECF12BD01BDF89AC3
:102B000080B58083033E110521F0319603EE10E07D
:102B1000F2CFF999FECF84EE90E092BD81BDF89A94
:102B200080B58093F504E8E5F3E025EE30E0F9990F
:102B3000FECF32BD21BDF89A80B580832F5F3F4F15
:102B4000293E310511F03196F2CFECE5F3E0F99929
:102B5000FECF32BD21BDF89A80B580832C3E310571
:102B600021F02F5F3F4F3196F2CF20D60E942D5A91
:102B7000ECE2F3E0949108C08091C00085FFFCCFA7
:102B80009093C600319694919923B1F7E1E5F1E075
:102B9000949108C08091C00085FFFCCF9093C6003F
:102BA000319694919923B1F78091C00085FFFCCFB5
:102BB0008AE08093C60001C08CDCA4960FB6F8941E
:102BC000DEBF0FBECDBFCF91DF911F910F91089552
:102BD000CF93DF93CCE2D3E0FE01949108C08091C3
:102BE000C00085FFFCCF9093C60031969491992345
:102BF000B1F7E5E0F3E0949108C08091C00085FF53
:102C0000FCCF9093C600319694919923B1F78091AF
:102C1000C00085FFFCCF8AE08093C600FE0194913E
:102C2000ECE2F3E008C08091C00085FFFCCF9093F8
:102C3000C600319694919923B1F7409121075091A4
:102C4000220760912307709124078DEF92E00E9484
:102C5000C322409125075091260760912707709164
:102C600028078AEF92E00E94C322409129075091E1
:102C70002A0760912B0770912C0787EF92E00E9442
:102C8000C32240912D0750912E0760912F0770911C
:102C9000300784EF92E00E94C322E8E0F2E007C030
:102CA0008091C00085FFFCCF31969093C600908143
:102CB0009923B1F78091C00085FFFCCF8AE0809313
:102CC000C600FE019491ECE2F3E008C08091C000E0
:102CD00085FFFCCF9093C600319694919923B1F76C
:102CE000EAEDF2E0949108C08091C00085FFFCCF2E
:102CF0009093C600319694919923B1F78091C000CA
:102D000085FFFCCF8AE08093C600FE019491ECE23F
:102D1000F3E008C08091C00085FFFCCF9093C6000F
:102D2000319694919923B1F7409111075091120770
:102D3000609113077091140781ED92E00E94C32205
:102D40004091150750911607609117077091180769
:102D50008EEC92E00E94C3224091190750911A070D
:102D600060911B0770911C078BEC92E00E94C322BC
:102D700040911D0750911E0760911F077091200719
:102D800088EC92E00E94C322E8E0F2E007C0809164
:102D9000C00085FFFCCF31969093C60090819923A7
:102DA000B1F78091C00085FFFCCF8AE08093C60018
:102DB000FE019491ECE2F3E008C08091C00085FF31
:102DC000FCCF9093C600319694919923B1F7EAEA2B
:102DD000F2E0949108C08091C00085FFFCCF9093F1
:102DE000C600319694919923B1F78091C00085FF78
:102DF000FCCF8AE08093C600FE019491ECE2F3E000
:102E000008C08091C00085FFFCCF9093C60031962A
:102E100094919923B1F74091310750913207609115
:102E200033077091340781EA92E00E94D5224091E5
:102E300035075091360760913707709138078EE952
:102E400092E00E94D5224091390750913A07609153
:102E50003B0770913C078BE992E00E94D52240919C
:102E60003D0750913E0760913F077091400788E908
:102E700092E00E94D522E8E0F2E007C08091C00015
:102E800085FFFCCF31969093C60090819923B1F7CE
:102E90008091C00085FFFCCF8AE08093C600FE01D0
:102EA0009491ECE2F3E008C08091C00085FFFCCF74
:102EB0009093C600319694919923B1F7E3E6F2E03E
:102EC000949108C08091C00085FFFCCF9093C6000C
:102ED000319694919923B1F78091C00085FFFCCF82
:102EE0008AE08093C600FE019491ECE2F3E008C012
:102EF0008091C00085FFFCCF9093C60031969491DD
:102F00009923B1F7409145075091460760914707D3
:102F1000709148078AE592E00E94C32240914907D8
:102F200050914A0760914B0770914C0787E592E0FA
:102F30000E94C322E8E0F2E007C08091C00085FF54
:102F4000FCCF31969093C60090819923B1F7809180
:102F5000C00085FFFCCF8AE08093C600FE019491FB
:102F6000ECE2F3E008C08091C00085FFFCCF9093B5
:102F7000C600319694919923B1F7E4EAF1E0949177
:102F800008C08091C00085FFFCCF9093C6003196A9
:102F900094919923B1F78091C00085FFFCCF8AE01E
:102FA0008093C600FE019491ECE2F3E008C08091AA
:102FB000C00085FFFCCF9093C60031969491992371
:102FC000B1F74091410750914207609143077091DA
:102FD00044078BE991E00E94C32240915907509128
:102FE0005A0760915B0770915C0788E991E00E9445
:102FF000C32240910D0750910E0760910F07709109
:10300000100785E991E00E94D52240914D0750912B
:103010004E0760914F077091500782E991E00E943E
:10302000C32240915107509152076091530770910C
:1030300054078FE891E00E94C322409155075091B8
:10304000560760915707709158078CE891E00E94ED
:10305000C322E8E0F2E007C08091C00085FFFCCF0A
:1030600031969093C60090819923B1F78091C0006A
:1030700085FFFCCF8AE08093C600FE019491ECE2CC
:10308000F3E008C08091C00085FFFCCF9093C6009C
:10309000319694919923B1F7EAE7F1E0949108C051
:1030A0008091C00085FFFCCF9093C600319694912B
:1030B0009923B1F78091C00085FFFCCF8AE080930F
:1030C000C600FE019491ECE2F3E008C08091C000DC
:1030D00085FFFCCF9093C600319694919923B1F768
:1030E000409106055091070560910805709109050A
:1030F00081E791E00E94C32240910A0550910B059F
:1031000060910C0570910D058EE691E00E94C3223E
:1031100040910E0550910F056091100570911105B9
:103120008BE691E00E94C322E8E0F2E007C08091C4
:10313000C00085FFFCCF31969093C6009081992303
:10314000B1F78091C00085FFFCCF8AE08093C60074
:10315000DF91CF9108951F920F920FB60F920BB689
:103160000F9211242F933F934F938F939F93EF933D
:10317000FF934091C600E091E404F091E50431969C
:103180009F012F77307031978091E6049091E7048A
:103190002817390739F0EC59FB4F40833093E50489
:1031A0002093E404FF91EF919F918F914F913F9174
:1031B0002F910F900BBE0F900FBE0F901F90189580
:1031C0009A01AB01203081EE380780E0480780E0AB
:1031D000580749F182E08093C00060E079E08DE318
:1031E00090E00E94E06F2150304040405040CA01C2
:1031F000B90122E030E040E050E00E94E06F3093FF
:10320000C5002093C4008091C10080618093C100FB
:103210008091C10088608093C1008091C100806866
:103220008093C10008951092C00020E130E0E7CF04
:103230002091E6043091E7048091E4049091E50444
:103240008217930719F42FEF3FEF0EC0F901EC59E5
:10325000FB4F80812F5F3F4F2F7730703093E70413
:103260002093E604282F30E0C90108958091E604F8
:103270009091E7049093E5048093E4040895089501
:103280002F923F924F925F926F927F928F929F9276
:10329000AF92BF92CF92DF92EF92FF920F931F9364
:1032A000DF93CF93CDB7DEB7A0970FB6F894DEBF0C
:1032B0000FBECDBF1C016A017B014115510561059F
:1032C000710541F440E350E060E070E020E030E060
:1032D0008BD055C0882499245401422E552466244D
:1032E000772401E010E00C0F1D1F080D191DC70108
:1032F000B601A30192010E94BE6FF8016083089499
:10330000811C911CA11CB11CC701B601A301920133
:103310000E94BE6FC901DA016C017D01C114D104A4
:10332000E104F104F1F681E0E82EF12CEC0EFD1E33
:10333000E80CF91C3E010894611C711CD501C40104
:103340000197A109B1096C01C818D90815C0F60187
:10335000EE0DFF1D40814A3010F4405D01C0495C14
:10336000552747FD5095652F752FC10120E030E0AE
:103370003BD00894E108F1086E147F0441F7A09651
:103380000FB6F894DEBF0FBECDBFCF91DF911F9176
:103390000F91FF90EF90DF90CF90BF90AF909F90F4
:1033A0008F907F906F905F904F903F902F900895F7
:1033B0002115310539F48091C00085FFFCCF409381
:1033C000C60008955DCFEF92FF920F931F939A016D
:1033D000E62EFF2400E010E0B801A701E9DF1F910D
:1033E0000F91FF90EF900895EF92FF920F931F932C
:1033F000CF93DF93EC017A018B012115310539F46C
:103400008091C00085FFFCCFE092C60019C02A3031
:103410003105A9F477FF0FC04DE250E060E070E0A5
:1034200020E030E0E1DF10950095F094E094E11C9D
:10343000F11C011D111DCE01B801A7012AE020DFFA
:10344000DF91CF911F910F91FF90EF900895EF9230
:10345000FF920F931F937B019A010027F7FC0095C1
:10346000102FB801A701C0DF1F910F91FF90EF90BF
:1034700008950F931F938C014DE050E060E070E0E1
:1034800020E030E0B1DFC8014AE050E060E070E0E9
:1034900020E030E0A9DF1F910F910895CF92DF92D5
:1034A000EF92FF920F931F938C019A016B01EE2410
:1034B000FF24B701A6017CDFC801DBDF1F910F915C
:1034C000FF90EF90DF90CF9008959F92AF92BF92C0
:1034D000CF92DF92EF92FF920F931F93CF93DF93E0
:1034E000EC017A018B01922ECB01BA0120E030E091
:1034F00040E050E00E94DA6B882364F4CE014DE294
:1035000050E060E070E020E030E06EDF17FB1095E7
:1035100017F9109520E030E040E05FE3AA240BC0EB
:10352000CA01B90120E030E040E251E40E94E16BC1
:103530009B01AC01A394A91498F3C801B7010E94A0
:10354000016B7B018C010E944E6C5B016C010E943F
:103550007A6C9B01AC01C801B7010E94006B7B0132
:103560008C01CE01B601A5012AE030E021DF9920CF
:1035700099F1E9E0F2E007C08091C00085FFFCCF3F
:1035800031969093C60090819923B1F725C0C80168
:10359000B70120E030E040E251E40E94BA6E7B01C6
:1035A0008C010E94496C5B016C01CC24B7FCC09477
:1035B000DC2CCE01B601A5012AE030E015DFC60102
:1035C000B5010E947C6C9B01AC01C801B7010E944F
:1035D000006B7B018C019A949920C9F6DF91CF9101
:1035E0001F910F91FF90EF90DF90CF90BF90AF9021
:1035F0009F9008956ACF0895EF92FF920F931F93C3
:10360000CF93DF93EC01E0901205F0901305009149
:10361000140510911505688179818A819B81A80123
:1036200097010E94DA6B882324F4E882F9820A83E6
:103630001B83E0901605F090170500911805109176
:1036400019056C817D818E819F81A80197010E945F
:10365000DA6B882324F4EC82FD820E831F83609151
:103660001A0570911B0580911C0590911D0520E0A5
:1036700030E040E050E00E94016B7B018C016885E6
:1036800079858A859B85A80197010E94DA6B88233A
:1036900024F4E886F9860A871B87E0906803F09097
:1036A000690300916A0310916B03688179818A81B3
:1036B0009B81A80197010E94E86D181624F4E88206
:1036C000F9820A831B83E0906C03F0906D030091F4
:1036D0006E0310916F036C817D818E819F81A801A3
:1036E00097010E94E86D181624F4EC82FD820E8387
:1036F0001F83E0907003F0907103009172031091AA
:103700007303688579858A859B85A80197010E9446
:10371000E86D181624F4E886F9860A871B87DF917E
:10372000CF911F910F91FF90EF90089580914105E7
:103730000895EF92FF920F931F939B01AC0180912C
:10374000F504882321F1CA01B90120E030E040E00E
:103750005FE30E94BA6E7B018C0120E030E040E024
:1037600050E00E94DA6B882391F0C801B701A801EC
:1037700097010E94BA6E9B01AC01CA012BED3FE09C
:1037800049E450E40E94BA6E9B01AC0104C020E001
:1037900030E040E85FE360E070E080E89FE30E9493
:1037A000E16B1F910F91FF90EF9008956091580386
:1037B0007091590380915A0390915B03BADF609333
:1037C000600370936103809362039093630360913D
:1037D0005C0370915D0380915E0390915F03A9DFAC
:1037E000609364037093650380936603909367030B
:1037F00008950E94EA5A80914105882309F036C055
:1038000081E0809341058091440590914505A09108
:103810004605B09147058093480590934905A093CC
:103820004A05B0934B05E5E2F3E0949108C080911E
:10383000C00085FFFCCF9093C600319694919923E8
:10384000B1F7E2E3F3E0949108C08091C00085FFF6
:10385000FCCF9093C600319694919923B1F7809153
:10386000C00085FFFCCF8AE08093C6000895CF9307
:10387000DF93F8940E94EA5A5F9A10921E058A9A82
:1038800010921F058FB7F894909108019160909362
:1038900008018FBF10922005129A479A8CE060E0D1
:1038A0000E94DC69E5E2F3E0949108C08091C000D9
:1038B00085FFFCCF9093C600319694919923B1F780
:1038C000EDEBF3E0949108C08091C00085FFFCCF40
:1038D0009093C600319694919923B1F78091C000DE
:1038E00085FFFCCF8AE08093C6007894C5E0D0E0E5
:1038F00006C068EC70E080E090E00E944368219789
:103900008FEFCF3FD807A9F7F894FFCF0E94356813
:1039100060934E0570934F05809350059093510529
:10392000ECEDF3E0949108C08091C00085FFFCCFDE
:103930009093C600319694919923B1F78091C0007D
:1039400085FFFCCF8AE08093C60008956F927F9236
:103950008F929F92AF92BF92CF92DF92EF92FF929F
:103960000F931F93F82E6091560570915705809123
:1039700058059091590520915A0530915B05409169
:103980005C0550915D050E94F56D3B014C0100D036
:1039900000D00DB71EB70F5F1F4F6091500370919D
:1039A0005103882777FD8095982F0E947C6C209189
:1039B000B5033091B6034091B7035091B8030E940C
:1039C000BA6E20E030E040E752E40E94E16B20E074
:1039D00030E048EC52E40E94E16B5B016C01F801BD
:1039E0006082718282829382F48280913505858320
:1039F00086EF94E062E675E046E555E020E001E000
:103A000032E0E32E0E94843B809162059091630531
:103A1000A0916405B09165058093F6049093F70436
:103A2000A093F804B093F90480916605909167051E
:103A3000A0916805B09169058093FA049093FB0406
:103A4000A093FC04B093FD0480916A0590916B05EE
:103A5000A0916C05B0916D058093FE049093FF04D6
:103A6000A0930005B093010580916E0590916F05BC
:103A7000A0917005B09171058093020590930305A4
:103A8000A0930405B09305058DB79EB706960FB6B3
:103A9000F8949EBF0FBE8DBF0E94356860934E059F
:103AA00070934F0580935005909351051F910F918E
:103AB000FF90EF90DF90CF90BF90AF909F908F904E
:103AC0007F906F900895CF92DF92EF92FF920F93C5
:103AD0001F9382E695E090DD0E94356860934E0565
:103AE00070934F0580935005909351056091F604B3
:103AF0007091F7048091F8049091F9042091620587
:103B00003091630540916405509165050E94DA6B20
:103B1000882309F07AC06091FA047091FB048091C7
:103B2000FC049091FD042091660530916705409159
:103B30006805509169050E94DA6B882309F065C019
:103B40006091B5037091B6038091B7039091B8036B
:103B500020E030E040E752E40E94E16B7B018C0101
:103B600082E695E066E675E04AE655E02EE635E049
:103B7000E5E3CE2EE5E0DE2E0E94D8458091620579
:103B800090916305A0916405B09165058093F6045A
:103B90009093F704A093F804B093F904809166051C
:103BA00090916705A0916805B09169058093FA042A
:103BB0009093FB04A093FC04B093FD0480916A05EC
:103BC00090916B05A0916C05B0916D058093FE04FA
:103BD0009093FF04A0930005B093010580916E05BA
:103BE00090916F05A0917005B091710580930205C9
:103BF00090930305A0930405B09305051F910F91C1
:103C0000FF90EF90DF90CF900895609150037091F6
:103C10005103882777FD8095982F0E947C6C209116
:103C2000B5033091B6034091B7035091B8030E9499
:103C3000BA6E20E030E040E752E40E94E16B20E001
:103C400030E048EC52E488CF88EE94E00FDBEFEDF3
:103C5000F3E0949108C08091C00085FFFCCF909361
:103C6000C600319694919923B1F740914405509143
:103C7000450560914605709147054F5F5F4F6F4F57
:103C80007F4F88EE94E02AE030E0AEDB8091C00008
:103C900085FFFCCF8AE08093C60038CE2F923F92FA
:103CA0004F925F926F927F928F929F92AF92BF924C
:103CB000CF92DF92EF92FF920F931F93DF93CF93F8
:103CC000CDB7DEB7CF54D0400FB6F894DEBF0FBEED
:103CD000CDBF60969FAF8EAF60978091E9049091C1
:103CE000EA048130910519F0039709F04FC18091E2
:103CF0003505082F10E06091FE047091FF0480915B
:103D000000059091010520E030E040E251E40E947E
:103D1000016B6E837F8388879987B801660F771F51
:103D2000660F771FE090AC03F090AD030091AE03F7
:103D30001091AF03CB018C589C4F64587C4FAE015F
:103D40004A5F5F4F22E035E0F5E3CF2EF5E0DF2E4E
:103D50000E94D84580913505082F10E06091FE043F
:103D60007091FF04809100059091010520E030E002
:103D700040E251E40E94016B6A877B878C879D87B4
:103D8000B801660F771F660F771FE090AC03F090C5
:103D9000AD030091AE031091AF03CB018C579C4F44
:103DA00064577C4FAE01465F5F4F22E035E00E94D2
:103DB000D84580913505082F10E06091FE04709180
:103DC000FF04809100059091010520E030E040E281
:103DD00051E40E94016B6E877F87888B998BB801B5
:103DE000660F771F660F771FE090AC03F090AD036E
:103DF0000091AE031091AF03CB018C579C4F6456DA
:103E00007C4FAE01425F5F4F22E035E00E94D84513
:103E10000091350510E06091FE047091FF048091DF
:103E200000059091010520E030E040E251E40E945D
:103E3000016B6A8B7B8B8C8B9D8B0F2EF0E08F2E12
:103E4000F0E09F2EF0E0AF2EF0E0BF2EF02D8E8A36
:103E50009F8AA88EB98E000F111F000F111FC80175
:103E60008C579C4F04561C4FB801AE014E5E5F4FFD
:103E70009E012A5E3F4F0E94D24080913505082F57
:103E800010E06091FE047091FF0480910005909114
:103E9000010520E030E040E251E40E94016B6A8FAE
:103EA0007B8F8C8F9D8FB801660F771F660F771FF2
:103EB000E090A803F090A9030091AA031091AB032E
:103EC000CB018C579C4F64567C4FAE01465E5F4FD2
:103ED00024EA33E00E94D8450091350510E0609156
:103EE000FE047091FF04809100059091010520E08F
:103EF00030E040E251E40E94016B6E8F7F8F88A317
:103F000099A38AA29BA2ACA2BDA2000F111F000F11
:103F1000111FC8018C579C4F04561C4FB801AE01AD
:103F2000425E5F4F9E012E5D3F4F0E94D2408091C6
:103F30003505082F10E06091FE047091FF04809118
:103F400000059091010520E030E040E251E40E943C
:103F5000016B6EA37FA388A799A7B801660F771F8F
:103F6000660F771FE090AC03F090AD030091AE03B5
:103F70001091AF03CB018C569C4F64567C4FAE0121
:103F80004A5D5F4F22E035E00E94D8458091E90408
:103F90009091EA040297029708F04CC16091FE04E8
:103FA0007091FF04809100059091010520E030E0C0
:103FB00040E251E40E94016B6AA77BA78CA79DA7F2
:103FC000E090AC03F090AD030091AE031091AF030D
:103FD0002F968FAD2F97898360962EAC3FAC60975C
:103FE000220C331C220C331CB10164587C4FC101DC
:103FF0008C589C4FAE01465D5F4F22E035E06E016C
:104000000894C11CD11C0E94D845B4E84B2EB3E0E3
:104010005B2E420C531C6091FE047091FF04809152
:1040200000059091010520E030E040E251E40E945B
:10403000016B6EA77FA788AB99ABE090AC03F090C3
:10404000AD030091AE031091AF032F96EFAD2F9704
:10405000EA83B10164577C4FC201AE01425D5F4FFC
:1040600022E035E0A2E0CA2ED12CCC0EDD1E0E944B
:10407000D845FCE96F2EF3E07F2E620C731C609133
:10408000FE047091FF04809100059091010520E0ED
:1040900030E040E251E40E94016B6AAB7BAB8CAB39
:1040A0009DABE090AC03F090AD030091AE03109196
:1040B000AF032F96FFAD2F97FB83C201B301AE0173
:1040C0004E5C5F4F22E035E0E3E0CE2ED12CCC0EEB
:1040D000DD1E0E94D8456091FE047091FF0480911E
:1040E00000059091010520E030E040E251E40E949B
:1040F000016B6EAB7FAB88AF99AF0F2EF0E08F2EC8
:10410000F0E09F2EF0E0AF2EF0E0BF2EF02D8AAE53
:104110009BAEACAEBDAEC201B301AE014A5C5F4F17
:104120009E01265C3F4F0E94D2401EE3C12ED12C3F
:10413000CC0EDD1E6091FE047091FF04809100059D
:104140009091010520E030E040E251E40E94016BD3
:10415000F6016083718382839383E090A803F090DB
:10416000A9030091AA031091AB032F96FFAD2F97DF
:10417000FC83C201B301A60124EA33E0B4E0CB2EF4
:10418000D12CCC0EDD1E0E94D8458E010E5B1F4F38
:104190006091FE047091FF048091000590910105EB
:1041A00020E030E040E251E40E94016BF8016083BE
:1041B000718382839383FE01EA5BFF4F8082918249
:1041C000A282B382C201B301A8019F010E94D24022
:1041D000AAE4CA2ED12CCC0EDD1E6091FE04709193
:1041E000FF04809100059091010520E030E040E25D
:1041F00051E40E94016BF601608371838283938393
:10420000E090AC03F090AD030091AE031091AF03CA
:104210002F96FFAD2F97FD83C1018C569C4FB301A4
:10422000A60122E035E0F5E0CF2ED12CCC0EDD1E2C
:104230000E94D845C15BDF4F0FB6F894DEBF0FBEBA
:10424000CDBFCF91DF911F910F91FF90EF90DF9045
:10425000CF90BF90AF909F908F907F906F905F9026
:104260004F903F902F9008952F923F924F925F92E0
:104270006F927F928F929F92AF92BF92CF92DF9276
:10428000EF92FF920F931F93DF93CF93CDB7DEB7DB
:1042900028970FB6F894DEBF0FBECDBF98878F83E7
:1042A0008330910508F056C1FC01E756FA4FD490CF
:1042B0003C01660C771C660C771C93012A503B4F1F
:1042C0003A83298380E090E0A0E0B0E0F9018083A8
:1042D0009183A283B38386EF94E06AEF74E04EEF9C
:1042E00054E022E035E00E94D240F301E456FA4F58
:1042F000E590F590059114916D2D772767FD7095E8
:10430000882777FD8095982F0E947C6C1B012C01DB
:1043100093012E593A4F3C832B83C801B70120E00B
:1043200030E040EC5FE30E94BA6EA20191010E946E
:10433000BA6EAB81BC816D937D938D939C931397E3
:10434000F301E05CFC4FFE83ED836081718182812B
:1043500093816093B5037093B6038093B7039093F2
:10436000B80320E030E040E752E40E94E16B7B01BB
:104370008C0182E695E066E675E04AE655E02EE6B9
:1043800035E0E5E3CE2EE5E0DE2E0E94D8450E9422
:10439000E35280E090E0A0E0B0E0E981FA81808320
:1043A0009183A283B38386EF94E06AEF74E04EEFCB
:1043B00054E022E035E00E94D240F301E855FA4F84
:1043C00085909590A590B490C501B4019058A20134
:1043D00091010E94BA6EAB81BC816D937D938D93E8
:1043E0009C9313976091B5037091B6038091B703C6
:1043F0009091B80320E030E040E752E40E94E16B86
:104400007B018C0182E695E066E675E04AE655E0C0
:104410002EE635E00E94D8450E94E352C501B40162
:10442000A50194010E94016BA20191010E94BA6E44
:10443000EB81FC816083718382839383AD81BE8134
:104440006D917D918D919C9120E030E040E85EE39C
:104450000E94BA6E6093B5037093B6038093B7035E
:104460009093B80320E030E040E752E40E94E16B13
:104470007B018C0182E695E066E675E04AE655E050
:104480002EE635E00E94D8450E94E352F301EC5439
:10449000FA4F6591759185919491F301EA5FFA4F16
:1044A000A080B180C280D380A60195010E94016BDB
:1044B0007B018C01CB01D801E981FA818083918352
:1044C000A283B383F301E054FA4F6591759185910E
:1044D0009491B2E18B2EB5E09B2E860C971CA60121
:1044E00095010E94016BD4016D937D938D939C93F4
:1044F0001397F301E453FA4F659175918591949167
:10450000E8E6F3E06E0E7F1EA60195010E94016BA6
:10451000D3016D937D938D939C931397C701D8011D
:10452000EB81FC8180839183A283B38380E090E060
:10453000A0E0B0E08093B5039093B603A093B703D7
:10454000B093B8030E94F351AF81B885A25EBA4F11
:1045500081E08C9328960FB6F894DEBF0FBECDBFD6
:10456000CF91DF911F910F91FF90EF90DF90CF904F
:10457000BF90AF909F908F907F906F905F904F9083
:104580003F902F900895FC01949108C08091C00045
:1045900085FFFCCF9093C600319694919923B1F793
:1045A00088EE94E022E030E025C8FC01949108C038
:1045B0008091C00085FFFCCF9093C6003196949106
:1045C0009923B1F788EE94E02AE030E00C94D819F2
:1045D00040917D0550917E0520E630E0B901469F6F
:1045E0009001479F300D569F300D1124682F77277B
:1045F00067FD7095C90181589A4F0E94E10C9C019A
:1046000090937C0580937B0580E0232B09F081E06B
:10461000089580917B0590917C05019660E070E0A3
:104620004AE050E00C94800B80917B0590917C05D2
:10463000019660E070E00C94230ACF93DF93EC01C5
:10464000809135058093430584E5C2DF882309F412
:1046500081C0EADF0E944E6C262F609343056230D2
:1046600008F478C0ECE2F3E0949108C08091C000B7
:1046700085FFFCCF9093C600319694919923B1F7B2
:10468000CD36D105C1F0CE36D10544F4C836D105BA
:10469000C1F0C936D10509F04DC010C0CA3DD105E1
:1046A00039F0CD3DD10509F045C0EBE0F2E03FC067
:1046B000E2E2F2E031C0E9E3F2E023C0E0E5F2E05B
:1046C00015C0E7E6F2E007C08091C00085FFFCCF8F
:1046D00031969093C60090819923B1F72BC08091B9
:1046E000C00085FFFCCF31969093C600908199233E
:1046F000B1F720C08091C00085FFFCCF3196909328
:10470000C60090819923B1F715C08091C00085FF44
:10471000FCCF31969093C60090819923B1F70AC0DF
:104720008091C00085FFFCCF31969093C6009081A8
:104730009923B1F788EE94E0622F40E050E00E94A8
:10474000E3198091C00085FFFCCF8AE08093C6000A
:1047500081E001C080E0DF91CF910895AF92BF92D8
:10476000CF92DF92EF92FF920F931F93CF93DF933D
:10477000A6EFEA2EA4E0FA2EC2E6D5E000E010E0B3
:10478000F801E75FFB4F808123DF882331F14CDFA5
:104790005B016C01F801E151FB4F8081882311F02E
:1047A00061E002C06091720570E0882777FD809516
:1047B000982F0E947C6CF7012081318142815381C6
:1047C0000E94BA6E9B01AC01C601B5010E94016B4B
:1047D000688379838A839B8309C0F70180819181F3
:1047E000A281B38188839983AA83BB830F5F1F4F04
:1047F00084E090E0E80EF91E24960430110509F0DB
:10480000BFCF86E4E5DE8823D9F00EDF7B018C0183
:104810006093730570937405809375059093760586
:1048200020E030E040E050E00E94E86D181644F4CB
:10483000E092B503F092B6030093B7031093B80368
:10484000DF91CF911F910F91FF90EF90DF90CF906C
:10485000BF90AF90089582DF89E4BADE882351F0DB
:10486000E3DE609356057093570580935805909347
:1048700059050CC080E090E0A0E0B0E080935605C0
:1048800090935705A0935805B09359058AE4A0DE8C
:10489000882351F0C9DE60935A0570935B058093BD
:1048A0005C0590935D05089580E090E0A0E0B0E0A5
:1048B00080935A0590935B05A0935C05B0935D05CA
:1048C00008959F92AF92BF92CF92DF92EF92FF92A4
:1048D0000F931F93CF93DF9310E6C12ED12CE8EDF9
:1048E000F5E0B490BAE0AB2E992493940CC22D302D
:1048F00071F02A3321F480910007882341F08091E0
:104900000107909102078F3591050CF4D8C1E09111
:104910000107F0910207309719F4109200072CC29A
:10492000A0910307B0910407AC9D8001AD9D100DCF
:10493000BC9D100D1124E00FF11FE158FA4F1082B9
:1049400080910007882309F0B5C110920007AB5F82
:10495000B84F1C92E801C158DA4FCE016EE470E006
:104960000E94E10C9C01009709F4F6C090937C052D
:1049700080937B052F5F3F4F2C1B3D0B200F311F7A
:10498000C90181589A4F60E070E04AE050E00E940F
:10499000800B6093090770930A0780930B0790932D
:1049A0000C07E0904405F0904505009146051091F4
:1049B0004705A80197012F5F3F4F4F4F5F4F621789
:1049C00073078407950709F4BDC18091030790918F
:1049D00004079C012C9DC0012D9D900D3C9D900DC8
:1049E000112481589A4F64EF76E00E94C70C892BFE
:1049F00009F0A8C1E5E2F3E0949108C08091C000FD
:104A000085FFFCCF9093C600319694919923B1F71E
:104A1000E1ECF6E0949108C08091C00085FFFCCFE6
:104A20009093C600319694919923B1F788EE94E063
:104A3000B801A7012AE030E00E94F4198091C0007B
:104A400085FFFCCF73C01E274F5FFC01E40FF11DF3
:104A5000E158FA4FE081EA32B1F730937C052093B8
:104A60007B05C901019660E070E00E94230A0E9464
:104A7000496C212F30E02617370709F45CC0E5E2C6
:104A8000F3E0949108C08091C00085FFFCCF909323
:104A9000C600319694919923B1F7E2EAF6E0949139
:104AA00008C08091C00085FFFCCF9093C60031966E
:104AB00094919923B1F74091440550914505609137
:104AC00046057091470588EE94E02AE030E00E94A8
:104AD000F4198091C00085FFFCCF28C0E5E2F3E027
:104AE000949108C08091C00085FFFCCF9093C600D0
:104AF000319694919923B1F7E8E7F6E0949108C0D4
:104B00008091C00085FFFCCF9093C60031969491B0
:104B10009923B1F788EE94E0B801A7012AE030E0CC
:104B20000E94F4198091C00085FFFCCF8AE0809339
:104B3000C6008AD84AC08091090790910A07A091BF
:104B40000B07B0910C078093440590934505A09303
:104B50004605B09347053EC0CE016AE270E00E9470
:104B6000E10C009709F436C0E5E2F3E0949108C047
:104B70008091C00085FFFCCF9093C6003196949140
:104B80009923B1F7EEE4F6E0949108C08091C0005B
:104B900085FFFCCF9093C600319694919923B1F78D
:104BA0004091440550914505609146057091470537
:104BB00088EE94E02AE030E00E94F4198091C00071
:104BC00085FFFCCF8AE08093C60010920207109206
:104BD0000107D2C080910307909104078C9D80014A
:104BE0008D9D100D9C9D100D1124E801C158DA4FC8
:104BF000CE0167E470E00E94E10C9C01009771F126
:104C000090937C0580937B052F5F3F4F2C1B3D0BC2
:104C1000200F311FC90181589A4F60E070E00E9457
:104C2000230A0E94496C64307105C0F480914105EB
:104C30008823A1F09B2DE8EDF5E008C08091C0002D
:104C400085FFFCCF9093C600319694919923B1F7DC
:104C50008091C00085FFFCCFA092C6008091030721
:104C6000909104079C012C9DC0012D9D900D3C9DB1
:104C7000900D112481589A4F6EE772E00E94EC0C5F
:104C8000009711F40E94371C80910307909104074C
:104C9000019664E070E00E94AB6F909304078093EC
:104CA000030780914C0590914D05019690934D0519
:104CB00080934C05109202071092010724C02B33F9
:104CC00011F490920007809100078823E1F420916D
:104CD00001073091020780910307909104078C9D92
:104CE000F0018D9DF00D9C9DF00D1124E20FF31F3E
:104CF000E158FA4F8091FF0680832F5F3F4F30933A
:104D00000207209301078091E4049091E50420912B
:104D1000E6043091E704821B930B8F779070892B08
:104D200059F180914C0590914D0504972CF588EE32
:104D300094E00E941819282F8093FF068A3009F00A
:104D4000D6CDE5CD80910307909104078C9DE001BD
:104D50008D9DD00D9C9DD00D1124CE0181589A4F70
:104D60006AE270E00E94E10C9C01009709F4B6CE63
:104D700010E040E0CE0169CEDF91CF911F910F91FD
:104D8000FF90EF90DF90CF90BF90AF909F900895ED
:104D9000DF92EF92FF920F931F93D82E80914C05D4
:104DA00090914D0503970CF48CDD0E943568E090DE
:104DB0005205F0905305009154051091550520912E
:104DC0004E0530914F054091500550915105621BA1
:104DD000730B840B950BE616F7060807190738F4D2
:104DE000E114F1040105110511F00E94371C8091B6
:104DF000B1039091B203A091B303B091B4030097B3
:104E0000A105B105A9F10E94356820914E053091A8
:104E10004F054091500550915105621B730B840B57
:104E2000950B2091B1033091B2034091B30350919F
:104E3000B4032617370748075907D0F49091510C4F
:104E40008091520C9817A1F4DD2091F45F9A109292
:104E50001E058A9A10921F059FB7F8948091080149
:104E60008160809308019FBF10922005129A479A93
:104E70000E94F7421F910F91FF90EF90DF900895ED
:104E80002F923F924F925F926F927F928F929F925A
:104E9000AF92BF92CF92DF92EF92FF920F931F9348
:104EA000DF93CF93CDB7DEB7A6970FB6F894DEBFEA
:104EB0000FBECDBF87E48CDB882309F418C2B4DBB6
:104EC0000E94496C6430710509F447C06530710572
:104ED00054F46230710549F16330710594F577231C
:104EE000CCF40C9454396A35710509F4AFC16B35B3
:104EF000710534F46C31710511F00C9454396BC0A8
:104F00006B35710509F4A6C16C35710511F00C946F
:104F10005439A5C180914105882311F00C9454396E
:104F20001DDC0E94631D0C94543980914105882337
:104F300011F00C9454398FDC81E00E94A61C0C9473
:104F4000543980914105882311F00C94543983DC45
:104F500080E00E94A61C0C94543980E539DB88233C
:104F600021F4EE24FF24870105C05EDB0E944E6C15
:104F70007B018C0183E52CDB882359F055DB20E095
:104F800030E04AE754E40E94BA6E0E944E6C7B0106
:104F90008C010E94E3520E9435685B016C01AE0CEB
:104FA000BF1CC01ED11E0E94356860934E057093D1
:104FB0004F05809350059093510504C00E94F65F01
:104FC00080E0E6DE0E9435686A157B058C059D054C
:104FD000A8F30C9454398091B5039091B603A09135
:104FE000B703B091B8038093770590937805A093A9
:104FF0007905B0937A058091500390915103909375
:10500000F4048093F30484E690E09093510380933A
:1050100050030E94356860934E0570934F0580934E
:1050200050059093510581E00E94FA518091F60459
:105030009091F704A091F804B091F904809362056F
:1050400090936305A0936405B09365058091FA047D
:105050009091FB04A091FC04B091FD04809366053F
:1050600090936705A0936805B09369058091FE044D
:105070009091FF04A0910005B091010580936A050D
:1050800090936B05A0936C05B0936D05809102051C
:1050900090910305A0910405B091050580936E05DC
:1050A00090936F05A0937005B093710580E090E038
:1050B000A0E0B0E08093B5039093B603A093B7034C
:1050C000B093B80388E584DA882351F489E580DA5F
:1050D000882331F48AE57CDA882311F481E001C069
:1050E00080E08093B903882321F48AE571DA88236C
:1050F00019F082E090E0B8D88091B903882321F4B8
:1051000088E566DA882319F080E090E0ADD88091D8
:10511000B903882321F489E55BDA882319F081E05B
:1051200090E0A2D888E554DA8823C9F072DA6115D4
:1051300071058105910599F077DA20910605309186
:10514000070540910805509109050E94016B609385
:10515000F6047093F7048093F8049093F90489E5BA
:1051600037DA8823C9F055DA611571058105910593
:1051700099F05ADA20910A0530910B0540910C05FF
:1051800050910D050E94016B6093FA047093FB042B
:105190008093FC049093FD048AE51ADA8823C9F011
:1051A00038DA611571058105910599F03DDA209194
:1051B0000E0530910F0540911005509111050E9488
:1051C000016B6093FE047093FF048093000590933D
:1051D000010586EF94E06AEF74E04EEF54E022E0C0
:1051E00035E00E94D24080E00E94FA51809177051C
:1051F00090917805A0917905B0917A058093B503D7
:105200009093B603A093B703B093B8038091F304CF
:105210009091F40490935103809350030E94356859
:1052200060934E0570934F05809350059093510500
:105230000E94F3510E9435686093EB047093EC0474
:105240008093ED049093EE040C94543910927205FF
:105250000C94543981E0809372050C94543985E4A0
:10526000B7D9882311F40E94E35256EFE52E54E09B
:10527000F52E46E0C42E45E0D42E00E010E0F80103
:10528000E75FFB4F8081A4D9882321F1033059F4D3
:10529000CBD9F701608371838283938382E095E0A9
:1052A0000E94B54017C0C0D9F601208131814281EA
:1052B00053810E94016BF701608371838283938322
:1052C00086EF94E06AEF74E04EEF54E022E035E0C0
:1052D0000E94D2400F5F1F4F24E030E0E20EF31E29
:1052E000C20ED31E0430110551F60C9454398DE4CE
:1052F0006FD9882311F40C946E3796D90E94496CAB
:105300006937710511F40C9484326A3771050CF019
:105310007EC06C35710509F45CC76D357105CCF53F
:105320006035710509F4B5C661357105BCF46231AB
:10533000710509F4D1C66331710534F46131710529
:1053400011F00C94543901C16F31710509F40BC18E
:105350006A32710511F00C945439AFC1633571058F
:1053600009F4B5C66435710554F46135710509F465
:1053700094C66235710511F00C945439A4C6643595
:10538000710509F4A9C66535710511F00C945439FD
:1053900005C76037710509F4FAC161377105DCF49E
:1053A0006A36710509F43EC66B36710554F46836E9
:1053B000710509F4CCC16936710511F00C945439AA
:1053C000FBC16B36710509F45EC66D36710511F0CF
:1053D0000C94543931C36537710509F48EC76637AB
:1053E000710554F46237710509F496C76337710586
:1053F00011F00C94543972C76737710509F4A2C0D3
:105400006837710511F00C9454390C9480326D3D5D
:10541000710511F40C9459356E3D71050CF041C0C5
:105420006B3C710511F40C94D2336C3C7105CCF4D7
:105430006E3B710509F4E4C46F3B710534F46C38BC
:10544000710511F00C945439A6C1683C710511F432
:105450000C941133693C710511F00C9454390C947F
:10546000B0336E3C710511F40C946E346F3C7105D1
:1054700064F46C3C710511F40C94F0336D3C7105CF
:1054800011F00C9454390C9410346A3D710511F4E8
:105490000C949C346C3D710511F00C9454390C94AF
:1054A0004A3531E0653F730711F40C94283681E0EA
:1054B000663F78071CF591E06F32790711F40C9480
:1054C000E235E1E060337E0764F4623E710511F479
:1054D0000C9480356E52714011F00C9454390C9438
:1054E000D33521E06039720711F40C942236645FE1
:1054F000714011F00C9454390C94253683E06335D7
:10550000780711F40C94313693E0643579076CF424
:10551000E1E0663F7E0711F40C942B36675F714023
:1055200011F00C9454390C942E3623E0653E72072A
:1055300011F40C943637675E734011F00C945439B3
:105540000C945937E3E8F2E0EAC75F988A989FB76E
:10555000F894809108018E7F809308019FBF129874
:1055600047980C9454390E94356860933D057093B8
:105570003E0580933F059093400520913905309179
:105580003A0540913B0550913C05621B730B840B1F
:10559000950B28EE33E040E050E00E94BE6FF22E03
:1055A000E32ED42EC52E8DB79EB708970FB6F8946C
:1055B0009EBF0FBE8DBF0DB71EB70F5F1F4FCE0131
:1055C0000996EDB7FEB7928381838AE895E0F801EA
:1055D00093838283622F732F842F952F2CE330E0E7
:1055E00040E050E00E94BE6FF801358324836F2DA8
:1055F0007E2D8D2D9C2D2CE330E040E050E00E946C
:10560000BE6FF801778366830E94030DECE2F3E03E
:1056100094912DB73EB7285F3F4F0FB6F8943EBF29
:105620000FBE2DBF08C08091C00085FFFCCF9093B6
:10563000C600319694919923B1F7FE01399607C0BF
:105640008091C00085FFFCCF31969093C600908179
:105650009923B1F78091C00085FFFCCF8AE0809349
:10566000C60080917D07882311F40C945439109260
:105670007D0780913505082F10E0000F111F0D5494
:10568000134FF80160817181882777FD8095982FED
:105690000E947C6C2091BE033091BF034091C003F7
:1056A0005091C1030E94E86D181614F00C945439FF
:1056B000F801118210820C94543983E50E94E8228B
:1056C000882311F40C9454390E9414230E94496CCD
:1056D0007B018C016B0180E50E94E822882369F040
:1056E000F7FC0BC0FFEFEF16F10409F034F40E9451
:1056F00014230E94496C8B0102C00DE010E0EDE024
:10570000F4E0808191818017910711F40C94543951
:10571000329624E0ED34F207A1F70930110529F49F
:10572000D0923705C092360504C017FF02C00C9412
:105730005439802F61E00E94DC69802F6C2D0E941B
:105740008F6A802FB6010E94FE680C94543988E657
:1057500090E00E941D23882311F00C94543983E5B6
:105760000E94E822882379F00E94142320914305A7
:10577000022F10E0000F111F0D54134F0E94496CAF
:10578000F801718360830E94E95A0C9454390E9495
:10579000371C0C94543983E50E94E822882311F4C5
:1057A0000C9454390E9414230E94496C7093B80CD5
:1057B0006093B70C0C94543989E690E00E941D2345
:1057C000882311F00C945439E4E8F5E0949108C072
:1057D0008091C00085FFFCCF9093C60031969491D4
:1057E0009923B1F7E0914305F0E0EE0FFF1FEE0FB4
:1057F000FF1FE354F34F408151816281738188EE32
:1058000094E021E030E00E94FA1AE1E8F5E094919A
:1058100008C08091C00085FFFCCF9093C6003196F0
:1058200094919923B1F7E0914305F0E0EE0FFF1F4B
:10583000ED54F34F60817181882777FD8095982F13
:105840000E947C6CAB01BC0188EE94E021E030E06A
:105850000E94FA1AEDE7F5E0949108C08091C0002B
:1058600085FFFCCF9093C600319694919923B1F7B0
:105870004091C90C5091CA0C6091CB0C7091CC0C2A
:1058800088EE94E021E030E00E94FA1AEAE7F5E0C1
:10589000949108C08091C00085FFFCCF9093C60012
:1058A000319694919923B1F76091B70C7091B80C2F
:1058B000882777FD8095982F0E947C6CAB01BC01F6
:1058C00088EE94E021E030E00E94FA1A73EBC72ED4
:1058D0007CE0D72E6DEBE62E6CE0F62E00E010E0BB
:1058E000E7E7F5E09490E5E7F5E0A490E2E7F5E07E
:1058F000B490992DE7E7F5E008C08091C00085FFDE
:10590000FCCF9093C600319694919923B1F788EE1D
:1059100094E0B8014AE050E00E94271A9A2DE5E78A
:10592000F5E008C08091C00085FFFCCF9093C600D1
:10593000319694919923B1F7F701408151816281A9
:10594000738188EE94E021E030E00E94FA1A9B2DEA
:10595000E2E7F5E008C08091C00085FFFCCF90939E
:10596000C600319694919923B1F7F6016191719136
:105970006F01882777FD8095982F0E947C6CAB0182
:10598000BC0188EE94E021E030E00E94FA1A0F5F3B
:105990001F4F24E030E0E20EF31E0230110509F043
:1059A000A8CFEEE6F5E0949108C08091C00085FF95
:1059B000FCCF9093C600319694919923B1F78091D2
:1059C00043050E942E5ABC0188EE94E04AE050E064
:1059D0000E94271AE6E6F5E0949108C08091C00085
:1059E00085FFFCCF9093C600319694919923B1F72F
:1059F0004091CD0C5091CE0C6091CF0C7091D00C99
:105A000088EE94E022E030E00E94FA1AECE9F2E03D
:105A100007C08091C00085FFFCCF31969093C600EF
:105A200090819923B1F78091C00085FFFCCF8AE077
:105A30008093C6000C9481398DE690E00E941D236E
:105A4000882311F00C94543910927D0783E50E944D
:105A5000E822882399F00E94142320914305022F05
:105A600010E0000F111F0D54134F0E94496CF801F4
:105A70007183608381E08093B00316C082E50E9449
:105A8000E822882389F00E94142320914305022FE5
:105A900010E0000F111F0D54134F0E94496CF801C4
:105AA000718360831092B00383E50E94E82288230B
:105AB00051F00E9414236093BE037093BF03809340
:105AC000C0039093C10382E40E94E822882351F02E
:105AD0000E9414236093BA037093BB038093BC03AA
